:1000000045C0000060C000005EC000005CC0000091
:100010005AC0000058C0000056C0000054C0000084
:1000200052C0000050C000004EC000004CC0000094
:100030004AC0000048C0000046C0000044C00000A4
:1000400042C0000040C000003EC000003CC00000B4
:100050003AC0000038C0000036C0000034C00000C4
:1000600032C0000030C000002EC000002CC00000D4
:100070002AC0000028C0000026C0000024C00000E4
:1000800022C0000020C000001EC0000011241FBEBE
:10009000CFEFD0E1DEBFCDBF11E0A0E0B1E0E2EEF6
:1000A000F6E000E00BBF02C007900D92A232B1074C
:1000B000D9F721E0A2E2B1E001C01D92A832B20757
:1000C000E1F715D00CC39CCF3E9A96B1976096B9D4
:1000D000379A359A97B127B1907E892B822B87B9B1
:1000E000369A0895349BFECF84B195B10895E2E22B
:1000F000F1E08EE091E09383828380E091E0918350
:10010000808318D085E0E0DFCCE1D1E0EBDF9F9386
:100110008F93DF93CF9336D09FEF23ED80E3915001
:1001200020408040E1F700C000000F900F900F903A
:100130000F90ECCF109298008FEC80939900EBE930
:10014000F0E0808182608083EDE9F0E0808186606C
:100150008083EAE9F0E0808180618083808188602B
:1001600080830895EBE9F0E0908195FFFDCF8093C7
:100170009C000895EBE9F0E080818823ECF7809102
:100180009C000895CF93DF93CDB7DEB7AE014B5FF0
:100190005F4FFA0161917191AF01809124019091BB
:1001A000250103D0DF91CF9108952F923F924F9276
:1001B0005F926F927F928F929F92AF92BF92CF92F7
:1001C000DF92EF92FF920F931F93CF93DF93CDB700
:1001D000DEB72C970FB6F894DEBF0FBECDBF7C0103
:1001E0006B018A01FC0117821682838181FFB0C1F5
:1001F000CE0101964C01F7019381F60193FD8591A3
:1002000093FF81916F01882309F49EC1853239F4EF
:1002100093FD859193FF81916F01853221F4B701A0
:1002200090E0C7D1E8CF512C312C20E02032A0F44F
:100230008B3269F030F4803259F0833269F42061F6
:100240002CC08D3239F0803339F4216026C0226011
:10025000246023C0286021C027FD27C030ED380F5F
:100260003A3078F426FF06C0FAE05F9E300D112484
:10027000532E13C08AE0389E300D1124332E206295
:100280000CC08E3221F426FD5FC1206406C08C367E
:1002900011F4206802C0883641F4F60193FD85917F
:1002A00093FF81916F018111C1CF982F9F7D95544C
:1002B000933028F40C5F1F4FFFE3F9830DC08336A2
:1002C00031F0833771F0833509F057C021C0F80150
:1002D000808189830E5F1F4F44244394512C540125
:1002E00014C03801F2E06F0E711CF801A080B180DB
:1002F00026FF03C0652D70E002C06FEF7FEFC501E0
:100300002C874CD12C0183012C852F77222E16C0EF
:100310003801F2E06F0E711CF801A080B18026FF59
:1003200003C0652D70E002C06FEF7FEFC5012C8721
:100330002AD12C012C852068222E830123FC19C090
:10034000832D90E048165906A0F4B70180E290E0B2
:1003500030D13A94F5CFF50127FC859127FE8191A4
:100360005F01B70190E025D131103A94F1E04F1AC6
:1003700051084114510479F7DEC0843611F08936F2
:1003800031F5F80127FF07C0608171818281938177
:100390000C5F1F4F08C060817181072E000C880B15
:1003A000990B0E5F1F4F2F76722E97FF09C0909505
:1003B0008095709561957F4F8F4F9F4F2068722E6B
:1003C0002AE030E0A4012DD1A82EA81843C085371B
:1003D00029F42F7EB22E2AE030E025C0F22FF97FDB
:1003E000BF2E8F36C1F018F4883579F0ADC0803754
:1003F00019F0883721F0A8C02F2F2061B22EB4FE4B
:100400000DC08B2D8460B82E09C024FF0AC09F2F19
:100410009660B92E06C028E030E005C020E130E04B
:1004200002C020E132E0F801B7FE07C060817181AF
:10043000828193810C5F1F4F06C06081718180E0D3
:1004400090E00E5F1F4FA401ECD0A82EA818FB2D42
:10045000FF777F2E76FE0BC0372D3E7FA51450F41C
:1004600074FE0AC072FC08C0372D3E7E05C0BA2C4F
:10047000372D03C0BA2C01C0B52C34FF0DC0FE01CE
:10048000EA0DF11D8081803311F4397E09C032FFFD
:1004900006C0B394B39404C0832F867809F0B39454
:1004A00033FD12C030FF06C05A2CB31418F4530C9D
:1004B0005B18B32CB31460F4B70180E290E03C8782
:1004C00078D0B3943C85F6CFB31410F43B1801C038
:1004D000312C34FF11C0B70180E390E03C8769D034
:1004E0003C8532FF16C031FD03C088E790E002C0B2
:1004F00088E590E0B7010CC0832F867851F031FF7A
:1005000002C08BE201C080E237FD8DE2B70190E0CE
:1005100050D0A51430F4B70180E390E04AD05A944B
:10052000F8CFAA94F401EA0DF11D8081B70190E0A3
:1005300040D0A110F6CF332009F45DCEB70180E2A0
:1005400090E037D03A94F7CFF7018681978102C0C7
:100550008FEF9FEF2C960FB6F894DEBF0FBECDBF86
:10056000DF91CF911F910F91FF90EF90DF90CF908F
:10057000BF90AF909F908F907F906F905F904F90C3
:100580003F902F900895FC0105906150704001103C
:10059000D8F7809590958E0F9F1F0895FC016150AC
:1005A000704001900110D8F7809590958E0F9F1F95
:1005B00008950F931F93CF93DF93FB01238121FDB8
:1005C00003C08FEF9FEF28C022FF16C046815781DE
:1005D000248135814217530744F4A081B1819D01E4
:1005E0002F5F3F4F318320838C93268137812F5F8C
:1005F0003F4F3783268310C0EB01092F182F00844B
:10060000F185E02D0995892BE1F68E819F81019678
:100610009F838E83812F902FDF91CF911F910F9118
:100620000895FA01AA27283051F1203181F1E89488
:100630006F936E7F6E5F7F4F8F4F9F4FAF4FB1E0D5
:100640003ED0B4E03CD0670F781F891F9A1FA11DD0
:10065000680F791F8A1F911DA11D6A0F711D811DD1
:10066000911DA11D20D009F468943F912AE0269F96
:1006700011243019305D3193DEF6CF010895462FF5
:100680004770405D4193B3E00FD0C9F7F6CF462FD6
:100690004F70405D4A3318F0495D31FD405241933F
:1006A00002D0A9F7EACFB4E0A695979587957795FC
:1006B0006795BA95C9F700976105710508959B0183
:1006C000AC010A2E06945795479537952795BA950C
:1006D000C9F7620F731F841F951FA01D0895F8941A
:0206E000FFCF4A
:1006E20000000001000000000000BA00000000004D
:1006F200000200000000B2000000000025640D0AA4
:020702000000F5
:00000001FF
