:1000000045C0000058C0000056C0000054C00000A9
:1000100052C0000050C000004EC000004CC00000A4
:100020004AC0000048C0000046C0000044C00000B4
:1000300042C0000040C000003EC000003CC00000C4
:100040003AC0000038C0000036C0000034C00000D4
:1000500032C0000030C000002EC000002CC00000E4
:100060002AC0000028C0000026C0000024C00000F4
:1000700022C0000020C000001EC000001CC0000004
:100080001AC0000018C0000016C0000011241FBED6
:10009000CFEFD0E1DEBFCDBF11E0A0E0B1E0EEEDEB
:1000A000F1E000E00BBF02C007900D92A231B10752
:1000B000D9F747D092C0A4CFBE9A8FB580618FBDCB
:1000C0008EB58A608EBD0895CF92DF92EF92FF9237
:1000D000CF93DF93FC01208131812115310541F15E
:1000E000EC0122960F2EF0E4CF2EF2E4DF2EFFE09B
:1000F000EF2EF12CF02D2115310519F41BBC1ABC83
:1001000009C0032E000C440B550BC701B60127D0C4
:100110003BBD2ABDFFEF29E688E1F1502040804039
:10012000E1F700C00000299139912115310519F737
:100130001BBC1ABCDF91CF91FF90EF90DF90CF9066
:100140000895BADF80E091E0BFDF2FEF83ED90E309
:10015000215080409040E1F700C00000F3CF052E11
:1001600097FB16F400940FD057FD05D014D007FC70
:1001700002D046F408C050954095309521953F4FE8
:100180004F4F5F4F089590958095709561957F4F83
:100190008F4F9F4F0895A1E21A2EAA1BBB1BFD0192
:1001A0000DC0AA1FBB1FEE1FFF1FA217B307E40756
:1001B000F50720F0A21BB30BE40BF50B661F771FAE
:1001C000881F991F1A9469F760957095809590958E
:0E01D0009B01AC01BD01CF010895F894FFCF53
:1001DE00060126014A015D018801B801EE010B02FC
:0201EE0000000F
:00000001FF
