:1000000045C0000060C000005EC000005CC0000091
:100010005AC0000058C0000056C0000054C0000084
:1000200052C0000050C000004EC000004CC0000094
:100030004AC0000048C0000046C0000044C00000A4
:1000400043C0000040C000003EC000003CC00000B3
:100050003AC0000038C0000036C0000034C00000C4
:1000600032C0000030C000002EC000002CC00000D4
:100070002AC0000028C0000026C0000024C00000E4
:1000800022C0000020C000001EC0000011241FBEBE
:10009000CFEFD0E1DEBFCDBF11E0A0E0B1E0EEEBED
:1000A000F1E000E00BBF02C007900D92AA30B1074B
:1000B000D9F721E0AAE0B1E001C01D92AC30B2074F
:1000C000E1F719D07AC09CCF1F920F920FB60F9212
:1000D00011248F939F9380910A0190910B010196B7
:1000E00090930B0180930A019F918F910F900FBE07
:1000F0000F901F901895CF93DF93CDB7DEB72A9757
:100100000FB6F894DEBF0FBECDBF8AE0E0E0F1E0AD
:10011000DE01119601900D928A95E1F78FEF87BB72
:10012000898188BB83B7876083BF87B7816087BFBA
:10013000789440E050E00AE010E020910A0130910C
:100140000B0120343105CCF310920B0110920A01FF
:10015000CA010196B8010AD0AC01E1E0F0E0EC0F71
:10016000FD1FE80FF91F808188BBE7CF97FB072EA3
:1001700016F4009406D077FD08D00BD007FC05D00C
:100180003EF4909581959F4F0895709561957F4FAE
:100190000895AA1BBB1B51E107C0AA1FBB1FA617CE
:1001A000B70710F0A61BB70B881F991F5A95A9F720
:0E01B00080959095BC01CD010895F894FFCF85
:0A01BE003F065B4F666D7D277F67EB
:00000001FF
