S010000043485F30395F30362E73726563FC
S113000045C0000058C0000056C0000054C00000A5
S113001052C0000050C000004EC000004CC00000A0
S11300204AC0000048C0000046C0000044C00000B0
S113003042C0000040C000003EC000003CC00000C0
S11300403AC0000038C0000036C0000034C00000D0
S113005032C0000030C000002EC000002CC00000E0
S11300602AC0000028C0000026C0000024C00000F0
S113007022C0000020C000001EC000001CC0000000
S11300801AC0000018C0000016C0000011241FBED2
S1130090CFEFD0E1DEBFCDBF11E0A0E0B1E0E8EFEB
S11300A0F1E000E00BBF02C007900D92AC31B10744
S11300B0D9F702D09FC0A4CFCF93DF93CDB7DEB7DB
S11300C069970FB6F894DEBF0FBECDBF15D089E196
S11300D0E3E0F1E0DE01119601900D928A95E1F7DB
S11300E0CE01019629D080E091E026D080E832D07C
S11300F080E091E021D0FFCF109298008FEC8093A4
S11301009900EBE9F0E0808182608083EDE9F0E022
S1130110808186608083EAE9F0E080818061808369
S11301208081886080830895EBE9F0E0908195FFF9
S1130130FDCF80939C000895CF93DF93EC018881D9
S1130140882329F02196F0DF89918111FCCFDF917A
S1130150CF910895EF92FF920F931F93CF93DF9364
S113016000D000D0CDB7DEB740E350E060E070E0EF
S113017049835A836B837C83882309F1FE0131967A
S113018000E010E04DEC849F912D112496959695F6
S11301909695392F330F232F220F220F230F821B03
S11301A0805D8193892F0F5F1F4F9111ECCFFE016A
S11301B0E00FF11F1182015011091AF410C000E080
S11301C010E0CE01800F911F9C012E5F3F4F7901FB
S11301D0F70182917F01A8DF01501109CAF70F903E
S11301E00F900F900F90DF91CF911F910F91FF907F
S10B01F0EF900895F894FFCF8D
S11301F80A0D0054657374207573696E6720554140
S10F0208525431204C696272617279001A
S9030000FC
